:020000040800F2
:1040000000000220B5530008B1520008B952000860
:10401000C1520008C9520008D15200080000000037
:10402000000000000000000000000000D95200085D
:10403000E752000800000000F55200080353000892
:1040400005540008055400080554000805540008EC
:1040500005540008055400080554000805540008DC
:1040600005540008055400080554000805540008CC
:1040700005540008055400080554000805540008BC
:10408000055400080554000805540008000000000D
:1040900000000000000000000000000005540008BF
:1040A000055400080554000805540008055400088C
:1040B000055400080554000805540008055400087C
:1040C000055400080554000805540008055400086C
:1040D00005540008055400080554000800000000BD
:1040E00005540008055400080554000800000000AD
:1040F000000000000000000000000000055400085F
:10410000000000000554000805540008055400088C
:10411000000000000000000000000000000000009F
:10412000055400080554000805540008055400080B
:10413000055400080000000000000000000000001E
:104140000000000000000000000000001153000803
:1041500005540008055400080554000805540008DB
:10416000055400080554000800000000000000008D
:10417000000000000000000000000000000000003F
:1041800000000000055400080000000000000000CE
:08419000055400080554000865
:1041A00010B5054C237833B9044B13B10448AFF371
:1041B00000800123237010BD4C010020000000008E
:1041C000B0CD000808B5034B1BB103490348AFF35A
:1041D000008008BD0000000050010020B0CD0008A4
:1041E00001F0FF01102A2BDB10F0070F08D010F8A8
:1041F000013B013A8B422DD010F0070F42B3F6D1AC
:10420000F0B441EA012141EA014122F007047FF0C4
:1042100000070023F0E80256083C85EA010586EA1B
:10422000010685FA47F5A3FA87F586FA47F6A5FA57
:1042300087F68EB9EED1F0BC01F0FF0102F0070263
:1042400032B110F8013B013A83EA010313B1F8D10E
:104250000020704701387047002D06BF35460338EF
:10426000073815F0010F07D1013015F4807F02BF28
:10427000013015F4C03F0130F0BC0138704700BF79
:1042800053B94AB9002908BF00281CBF4FF0FF31BD
:104290004FF0FF3000F088B9ADF1080C6DE904CEA5
:1042A00000F006F8DDF804E0DDE9022304B0704711
:1042B0002DE9F047089D0F4604468C46002B48D157
:1042C0008A42164661D9B2FA82F34BB1C3F1200299
:1042D00001FA03FC20FA02F29E4042EA0C0C9C40D8
:1042E0004FEA164EB7B2BCFBFEF1220C0EFB11CC0E
:1042F00042EA0C4201FB07F0904209D9B21801F1E1
:10430000FF3C80F0EE80904240F2EB800239324474
:10431000121AA4B2B2FBFEF00EFB102244EA0244D1
:1043200000FB07F7A74209D9341900F1FF3280F0EA
:10433000DA80A74240F2D7803444023840EA014094
:10434000E41B00211DB1DC400023C5E90043BDE8AA
:10435000F0878B4206D90DB1C5E90001002108465E
:10436000BDE8F087B3FA83F1002948D1BB4202D3FC
:10437000824200F20781841A67EB0302012094460F
:10438000002DE4D0C5E9004CE1E7002A00F092805E
:10439000B2FA82F3002B40F0A8808A1A4FEA164E38
:1043A0001FFA86FC0121200CB2FBFEF70EFB172240
:1043B00040EA02420CFB07F0904207D9B21807F11D
:1043C000FF3802D2904200F2E2804746121AA4B2AD
:1043D000B2FBFEF00EFB102244EA02440CFB00FC90
:1043E000A44507D9341900F1FF3202D2A44500F2E6
:1043F000CB801046A4EB0C0440EA0740A2E7C1F1D1
:1044000020068B4022FA06FC4CEA030C07FA01F462
:1044100020FA06F3F7404FEA1C49234300FA01F85B
:104420001FFA8CFEB7FBF9F01C0C09FB107744EA6D
:10443000074400FB0EF7A74202FA01F20AD91CEB6F
:10444000040400F1FF3A80F09B80A74240F298807C
:1044500002386444E41B9FB2B4FBF9F309FB134434
:1044600047EA044403FB0EFEA64509D91CEB0404ED
:1044700003F1FF3780F08280A6457FD9023B644478
:1044800043EA0040A4EB0E04A0FB02E7BC427346E3
:10449000B94663D360D05DB1B8EB030264EB0904A5
:1044A00004FA06F622FA01F31E43CC40C5E9006483
:1044B00000214CE76208480842EAC1710B0C43EA4C
:1044C00000438AB242EA0342B3FBF6F1E407B44682
:1044D0003746B6461F23B0FBF6F0D21B41EA004137
:1044E00061E7614614E7104628E7C3F1200120FA8E
:1044F00001F29E4027FA01F19F403A434FEA164EDF
:104500001FFA86FCB1FBFEF70EFB1710110C41EAF7
:10451000004107FB0CF8884504FA03F43AD97118F6
:1045200007F1FF3001D288451FD8A1EB0801B1FB8C
:10453000FEF808FB0CF70EFB181192B242EA01429A
:10454000BA422FD2B21808F1FF31C6D2BA42C4D251
:10455000A8F102013244C0E7F0459CD2BEEB020351
:1045600067EB0C070138B94695E7A6EB080841440C
:10457000B81EB1FBFEF808FB0CF7DCE73B467FE713
:10458000504667E70846FBE63444023832E7023F0C
:1045900032441BE7A1EB08013846B1FBFEF808FBEB
:1045A0000CF7C8E7414698E7704700BF80B58AB06E
:1045B00000AF07F1140300221A605A609A60DA60B3
:1045C0001A6100233B613A4B1B6B394A43F00403E9
:1045D0001363374B1B6B03F004033B613B69002300
:1045E000FB60334B1B6B324A43F080031363304B49
:1045F0001B6B03F08003FB60FB680023BB602C4B4C
:104600001B6B2B4A43F002031363294B1B6B03F014
:104610000203BB60BB6800237B60254B1B6B244AF5
:1046200043F001031363224B1B6B03F001037B6018
:104630007B6800224FF400511E4801F029FA002245
:1046400041F201011C4801F023FA0122D0211A484D
:1046500001F01EFA4FF400537B610123BB6100237C
:10466000FB6100233B6207F114031946114801F076
:1046700073F841F2D1037B610123BB610023FB612D
:1046800000233B6207F1140319460B4801F064F85C
:1046900002237B610023BB610123FB6107F114034B
:1046A0001946054801F058F800BF2837BD4680BDBF
:1046B00000380240000802400004024080B5ADF618
:1046C000180D02AF584B594A9A60BFF34F8F00BF85
:1046D000BFF36F8F00BF00F097FE00F0B7F8FFF751
:1046E00065FF00F0D5FC07F097F900F007FD00F03A
:1046F000B9FA01224FF480514D4801F0C9F9012265
:1047000001214B4801F0C4F900224FF400514948FF
:1047100001F0BEF901221021454801F0B9F901224A
:104720004021434801F0B4F901228021404801F0C2
:10473000AFF94FF4FA6000F0D9FE00F09DF90020C7
:1047400000F058FA4FF4FC6300930A230A22052173
:10475000052000F01BFA1F2300930A230A220521DB
:10476000142000F013FA4FF6E07300930A230A2294
:104770000521232000F00AFA1F212F4800F0B4FA87
:1047800016212E4800F0B0FA1A212D4800F0ACFA9C
:1047900000F0A6FB20212B4800F0A6FA0023C7F862
:1047A0000C380023A7F80A3800F08AFB00F00EFC52
:1047B000C7F80408B7F80A383A46D018B7F80A38E4
:1047C000C3F500631946D7F804380093D7F80C38BE
:1047D0001D4A07F031FEC7F80008D7F80038002B53
:1047E00007DDD7F800389AB2B7F80A381344A7F8AB
:1047F0000A38D7F80C380133C7F80C38B7F80A383C
:10480000B3F5F86FD0D9B7F80A283B4611461846D9
:1048100000F06AFA0023A7F80A384FF4005105485F
:1048200001F04FF9C0E700BF00ED00E000400008D4
:104830000004024000080240C8CD0008E8CD00088E
:1048400000CE00081CCE000840CE000880B594B011
:1048500000AF07F1200330220021184607F022FEA6
:1048600007F10C0300221A605A609A60DA601A613C
:104870000023BB60274B1B6C264A43F08053136414
:10488000244B1B6C03F08053BB60BB6800237B6030
:10489000214B1B68204A43F4404313601E4B1B68A6
:1048A00003F440437B607B6801233B624FF4803319
:1048B0007B620223BB634FF48003FB6319233B64D9
:1048C000C0237B640223BB640423FB6407F1200341
:1048D000184602F063FB0346002B01D000F0D0FB2A
:1048E0000F23FB6002233B6100237B614FF4805365
:1048F000BB610023FB6107F10C030321184602F0A2
:10490000C5FD0346002B01D000F0BAFB00BF5037B5
:10491000BD4680BD003802400070004080B500AF49
:1049200000221021024801F0B3F800BF80BD00BF93
:104930000004024080B500AF01221021024801F0BE
:10494000A7F800BF80BD00BF0004024080B500AFE3
:1049500000224021024801F09BF800BF80BD00BF4B
:104960000004024080B500AF01224021024801F05E
:104970008FF800BF80BD00BF0004024080B582B048
:1049800000AF0346FB71FFF7E1FFFFF7C7FFF91D1B
:104990004FF0FF330122084802F0B7FF0346002B17
:1049A00003D0FFF7C7FF00F06BFBFFF7C3FF00BFAB
:1049B0000837BD4680BD00BFC001002080B582B071
:1049C00000AF0346FB71FFF7CDFFFFF7A7FFF91D0F
:1049D0004FF0FF330122084802F097FF0346002BF7
:1049E00003D0FFF7A7FF00F04BFBFFF7A3FF00BFCB
:1049F0000837BD4680BD00BFC001002080B582B031
:104A000000AF78600B467B80FFF7ACFFFFF786FFB7
:104A10007A884FF0FF337968074802F076FF034643
:104A2000002B03D0FFF786FF00F02AFBFFF782FF81
:104A300000BF0837BD4680BDC001002080B500AF73
:104A4000012280210B4801F023F80A2000F04EFDDE
:104A500000228021074801F01BF8322000F046FDBB
:104A600001228021034801F013F8782000F03EFD78
:104A700000BF80BD0004024080B500AFFFF75AFFC1
:104A8000FFF7DCFF0120FFF779FF962000F02EFDF5
:104A90001120FFF773FF962000F028FD3A20FFF762
:104AA0006DFF0520FFF78AFF0A2000F01FFD36206A
:104AB000FFF764FF0020FFF781FF2920FFF75EFF6B
:104AC000962000F013FD00BF80BD90B585B000AF0B
:104AD0000446084611461A462346FB710346BB713D
:104AE0000B467B7113463B712A20FFF747FF0023DB
:104AF0003B73FB797B730023BB737B79FB7307F1FB
:104B00000C0304211846FFF779FF2B20FFF736FF2F
:104B100000233B72BB797B720023BB723B79FB7233
:104B200007F1080304211846FFF768FF2C20FFF760
:104B300025FF00BF1437BD4690BD80B584B000AFDF
:104B40000346FB710B46BB711346BB8097F90730D8
:104B5000002B17DBBB799F2B14D8BB79FA79B97975
:104B6000F879FFF7B2FFBB881B0A9BB2DBB23B733D
:104B7000BB88DBB27B7307F10C0302211846FFF7F9
:104B80003DFF00E000BF1037BD4680BD90B585B049
:104B900000AF0446084611461A462346FB710346F9
:104BA000BB710B467B7113463B71BB79FB7315E000
:104BB000FB79BB7308E03A8CF97BBB7B1846FFF7A7
:104BC000BCFFBB7B0133BB73FA797B791344DBB247
:104BD000BA7B9A42EFD3FB7B0133FB73BA793B7903
:104BE0001344DBB2FA7B9A42E2D300BF00BF143712
:104BF000BD4690BD80B584B000AF0346FB809F23C7
:104C00007F2200210020FFF760FFFB881B0A9BB278
:104C1000DBB23B72FB88DBB27B72FFF7A3FEFFF7D0
:104C20007DFE0023FB6011E007F108014FF0FF3328
:104C300002220B4802F069FE0346002B03D0FFF767
:104C400079FE00F01DFAFB680133FB60FB68B3F5E9
:104C5000A04FE9D3FFF76EFE00BF1037BD4680BD01
:104C6000C001002080B400AF094BDB68084A43F064
:104C70008073D360074B00225A60064B1B68054ABD
:104C800043F00103136000BFBD465DF8047B70472D
:104C9000F0ED00E0001000E080B485B000AF786077
:104CA0000E4B5B68FB600E4B1B680E4AA2FB032396
:104CB0009A0C7B6802FB03F3BB6000E000BF074B6C
:104CC0005A68FB68D31ABA689A42F7D800BF00BF87
:104CD0001437BD465DF8047B704700BF001000E04C
:104CE0000000002083DE1B4380B584B000AF7860F5
:104CF0000B467B8000F0EEFBF86007E000F0EAFB7B
:104D00000246FB68D31AB3F57A7F08D87B88194628
:104D1000786806F03FFF0346012BEFD000E000BFAC
:104D20001037BD4680BD000080B500AF00224FF4B3
:104D30008051024800F0ACFE00BF80BD000402407C
:104D400080B500AF01224FF48051024800F0A0FE70
:104D500000BF80BD0004024080B582B000AF0346B2
:104D6000FB71FFF7E1FFF91D4FF0FF330122094806
:104D700002F0CBFD0346002B03D0FFF7E1FF00F06C
:104D80007FF9FFF7DDFF0A20FFF786FF00BF083736
:104D9000BD4680BD6801002080B584B000AF0346E9
:104DA0000A46FB711346BB7197F9073003F00F03F6
:104DB0005BB243F050035BB2DBB23B7300237B7307
:104DC000BB79BB73FFF7B0FF07F10C014FF0FF3366
:104DD0000322094802F099FD0346002B03D0FFF798
:104DE000AFFF00F04DF9FFF7ABFF0A20FFF754FFCC
:104DF00000BF1037BD4680BD6801002080B584B07B
:104E000000AF0346FB710023FB7297F9073003F0F4
:104E10000F035BB243F010035BB2DBB23B730023C2
:104E20007B73FFF781FF07F10C014FF0FF33022284
:104E3000124802F06AFD0346002B03D0FFF780FF03
:104E400000F01EF90A20FFF727FF07F10B014FF0D2
:104E5000FF330122094802F09CFE0346002B03D0D9
:104E6000FFF76EFF00F00CF9FFF76AFF0A20FFF76B
:104E700013FFFB7A18461037BD4680BD680100203D
:104E800080B584B000AF786000F024FBF86009E0E2
:104E900000F020FB0246FB68D31A7A689A4201D2DE
:104EA000002307E00221054800F0DAFD0346012B4C
:104EB000EED0012318461037BD4680BD00040240E5
:104EC00080B500AF00E000BF0221044800F0C8FD3B
:104ED0000346012BF7D000BF00BF80BD0004024095
:104EE00080B596B000AFFFF72BFF012201213248B9
:104EF00000F0CEFD322000F0F9FAFE20FFF72CFF83
:104F0000052000F0F3FA4FF47A70FFF7B9FF03467B
:104F1000002B05D11F212948FFF7E6FE00F0B0F86D
:104F20000F20FFF719FF022000F0E0FA082101200E
:104F3000FFF732FF00210220FFF72EFFA1210320FF
:104F4000FFF72AFFF020FFF707FF4FF47A70FFF713
:104F500097FF0346002B05D121211948FFF7C4FE16
:104F600000F08EF80120FFF749FF034687F857301D
:104F700097F857303846134A502107F05DFA3865E4
:104F80003B6D9AB23B4611461846FFF7ADFE97F8C7
:104F90005730082B05D021210B48FFF7A5FE00F064
:104FA0006FF80320FFF7D8FE0A20FFF775FE00BF59
:104FB0005837BD4680BD00BF000402404CCE0008FB
:104FC0006CCE000890CE0008A4CE000880B586B054
:104FD00002AF1D4A07F10803126811461980023317
:104FE000120C1A703B1D00210A461A800A469A705C
:104FF000FFF79AFE3A1D07F108014FF0FF330093C7
:105000000323124802F0DEFE0346002B03D0FFF715
:1050100097FE00F035F8FFF793FE3B791A047B7991
:105020001B021343BA791343FB60FB6803F40003CC
:10503000002B03D0FB6843F07F43FB60FB681846FE
:105040001037BD4680BD00BFC8CE000868010020F3
:1050500080B500AF00224FF40051084800F018FD61
:10506000502000F043FA01224FF40051034800F0B1
:105070000FFD502000F03AFA00BFEBE700080240B5
:1050800080B500AF72B600BFFFF7E2FF00BF80BD82
:1050900080B500AF174B184A1A60164B4FF4827256
:1050A0005A60144B00229A60124B0022DA60114BB6
:1050B00000221A610F4B01225A610E4B4FF400720D
:1050C0009A610C4B2022DA610A4B00221A62094BCA
:1050D00000225A62074B00229A62064B0A22DA62C9
:1050E000044802F089FB0346002B01D0FFF7C8FFFC
:1050F00000BF80BD680100200038004080B500AFCF
:10510000174B184A1A60164B4FF482725A60144BB0
:1051100000229A60124B0022DA60114B00221A61C1
:105120000F4B00225A610E4B4FF400729A610C4BE8
:105130000022DA610A4B00221A62094B00225A62ED
:10514000074B00229A62064B0A22DA62044802F0F8
:1051500053FB0346002B01D0FFF792FF00BF80BD39
:10516000C0010020003C004080B58CB000AF7860EA
:1051700007F11C0300221A605A609A60DA601A6113
:105180007B681B68324A93422DD10023BB61314BAF
:105190001B6C304A43F4804313642E4B1B6C03F4A6
:1051A0008043BB61BB6900237B612A4B1B6B294A8F
:1051B00043F002031363274B1B6B03F002037B6175
:1051C0007B694FF46043FB6102233B6200237B62F7
:1051D0000323BB620523FB6207F11C0319461E482B
:1051E00000F0BAFA30E07B681B681C4A93422BD16E
:1051F00000233B61174B1B6C164A43F400431364B6
:10520000144B1B6C03F400433B613B690023FB60C0
:10521000104B1B6B0F4A43F0020313630D4B1B6BC8
:1052200003F00203FB60FB682823FB6102233B625F
:1052300000237B620323BB620623FB6207F11C038E
:105240001946054800F088FA00BF3037BD4680BDDA
:10525000003800400038024000040240003C00409A
:1052600080B483B000AF00237B60104B5B6C0F4AAF
:1052700043F4804353640D4B5B6C03F480437B60C9
:105280007B6800233B60094B1B6C084A43F080534A
:105290001364064B1B6C03F080533B603B6800BFFC
:1052A0000C37BD465DF8047B704700BF00380240F4
:1052B00080B400AF00BFFDE780B400AF00BFFDE7E2
:1052C00080B400AF00BFFDE780B400AF00BFFDE7D2
:1052D00080B400AF00BFFDE780B400AF00BFBD46A3
:1052E0005DF8047B704780B400AF00BFBD465DF839
:1052F000047B704780B400AF00BFBD465DF8047BFF
:10530000704780B500AF00F0D1F800BF80BD00004D
:1053100080B500AF024800F032FD00BF80BD00BF85
:105320000017002080B586B000AF7860144A154B96
:10533000D31A7B617B693B61134B1B68002B02D145
:10534000114B124A1A60104B1A687B6813443A6971
:105350009A4207D207F0AEF803460C221A604FF0CB
:10536000FF3309E0084B1B68FB60074B1A687B683A
:105370001344054A1360FB6818461837BD4680BDC4
:10538000000002200004000018020020501F00202E
:1053900080B400AF064BD3F88830054A43F470035D
:1053A000C2F8883000BFBD465DF8047B704700BF7F
:1053B00000ED00E0DFF834D0FFF7EAFF0C480D49BC
:1053C0000D4A002302E0D458C4500433C4188C4260
:1053D000F9D30A4A0A4C002301E013600432A242C6
:1053E000FBD307F06DF8FFF769F970470000022062
:1053F000000000204C01002068CF00084C01002074
:105400004C1F0020FEE7000080B500AF0E4B1B686C
:105410000D4A43F4007313600B4B1B680A4A43F4B4
:1054200080631360084B1B68074A43F48073136062
:10543000032000F04FF90F2000F008F8FFF710FFED
:105440000023184680BD00BF003C024080B582B0FA
:1054500000AF7860124B1A68124B1B7819464FF454
:105460007A73B3FBF1F3B2FBF3F3184600F067F97C
:105470000346002B01D001230EE07B680F2B0AD8D6
:10548000002279684FF0FF3000F02FF9064A7B6860
:105490001360002300E0012318460837BD4680BD95
:1054A00000000020080000200400002080B400AFAD
:1054B000064B1B781A46064B1B681344044A1360BC
:1054C00000BFBD465DF8047B704700BF08000020A8
:1054D0001C02002080B400AF034B1B681846BD4679
:1054E0005DF8047B704700BF1C02002080B584B0CB
:1054F00000AF7860FFF7EEFFB8607B68FB60FB6889
:10550000B3F1FF3F05D00A4B1B781A46FB681344E2
:10551000FB6000BFFFF7DEFF0246BB68D31AFA68E4
:105520009A42F7D800BF00BF1037BD4680BD00BF0C
:105530000800002080B485B000AF78607B6803F07D
:105540000703FB600C4BDB68BB60BA684FF6FF03D8
:105550001340BB60FB681A02BB68134343F0BF6390
:1055600043F40033BB60044ABB68D36000BF143708
:10557000BD465DF8047B704700ED00E080B400AFED
:10558000044BDB681B0A03F007031846BD465DF8B1
:10559000047B704700ED00E080B483B000AF0346A9
:1055A000FB7197F90730002B0BDBFB7903F01F022F
:1055B000074997F907305B09012000FA02F241F828
:1055C000232000BF0C37BD465DF8047B704700BF49
:1055D00000E100E080B483B000AF03463960FB71A6
:1055E00097F90730002B0ADB3B68DAB20C4997F9D0
:1055F00007301201D2B20B4483F800230AE03B6863
:10560000DAB20849FB7903F00F03043B1201D2B26E
:105610000B441A7600BF0C37BD465DF8047B70471B
:1056200000E100E000ED00E080B489B000AFF86078
:10563000B9607A60FB6803F00703FB61FB69C3F1A3
:105640000703042B28BF0423BB61FB690433062B2B
:1056500002D9FB69033B00E000237B614FF0FF327E
:10566000BB6902FA03F3DA43BB681A407B699A40CC
:105670004FF0FF317B6901FA03F3D9437B680B409C
:10568000134318462437BD465DF8047B704700007D
:1056900080B582B000AF78607B68013BB3F1807F5A
:1056A00001D301230FE00A4A7B68013B53600F21BD
:1056B0004FF0FF30FFF78EFF054B00229A60044B3E
:1056C00007221A60002318460837BD4680BD00BF78
:1056D00010E000E080B582B000AF78607868FFF736
:1056E00029FF00BF0837BD4680BD80B586B000AF3A
:1056F0000346B9607A60FB7300237B61FFF73EFFCE
:1057000078617A68B9687869FFF78EFF024697F981
:105710000F3011461846FFF75DFF00BF1837BD4632
:1057200080BD80B582B000AF0346FB7197F90730AA
:105730001846FFF731FF00BF0837BD4680BD80B572
:1057400082B000AF78607868FFF7A2FF0346184682
:105750000837BD4680BD000080B489B000AF7860D6
:10576000396000237B6100233B610023BB61002380
:10577000FB6159E10122FB6902FA03F37B613B689B
:105780001B687A6913403B613A697B699A4240F031
:1057900048813B685B6803F00303012B05D03B683D
:1057A0005B6803F00303022B30D17B689B68BB610D
:1057B000FB695B00032202FA03F3DB43BA6913407F
:1057C000BB613B68DA68FB695B0002FA03F3BA6904
:1057D0001343BB617B68BA699A607B685B68BB6195
:1057E0000122FB6902FA03F3DB43BA691340BB6190
:1057F0003B685B681B0903F00102FB6902FA03F3D3
:10580000BA691343BB617B68BA695A603B685B68DD
:1058100003F00303032B17D07B68DB68BB61FB69D4
:105820005B00032202FA03F3DB43BA691340BB6156
:105830003B689A68FB695B0002FA03F3BA69134399
:10584000BB617B68BA69DA603B685B6803F003039D
:10585000022B23D1FB69DA087B68083253F8223027
:10586000BB61FB6903F007039B000F2202FA03F3FD
:10587000DB43BA691340BB613B681A69FB6903F0FB
:1058800007039B0002FA03F3BA691343BB61FB6988
:10589000DA087B680832B96943F822107B681B6814
:1058A000BB61FB695B00032202FA03F3DB43BA69C5
:1058B0001340BB613B685B6803F00302FB695B005C
:1058C00002FA03F3BA691343BB617B68BA691A60D1
:1058D0003B685B6803F44033002B00F0A280002398
:1058E000FB60574B5B6C564A43F480435364544B04
:1058F0005B6C03F48043FB60FB68524AFB699B08C6
:10590000023352F82330BB61FB6903F003039B00B1
:105910000F2202FA03F3DB43BA691340BB617B68D1
:10592000494A934219D07B68484A934213D07B6816
:10593000474A93420DD07B68464A934207D07B6822
:10594000454A934201D1042308E0072306E00323DC
:1059500004E0022302E0012300E00023FA6902F0E0
:10596000030292009340BA691343BB613549FB6956
:105970009B080233BA6941F82320384B9B68BB610E
:105980003B69DB43BA691340BB613B685B6803F466
:105990008013002B03D0BA693B691343BB612F4AC4
:1059A000BB6993602D4BDB68BB613B69DB43BA6924
:1059B0001340BB613B685B6803F40013002B03D00A
:1059C000BA693B691343BB61244ABB69D360234B6B
:1059D0005B68BB613B69DB43BA691340BB613B68F1
:1059E0005B6803F40033002B03D0BA693B691343AF
:1059F000BB611A4ABB695360184B1B68BB613B69AA
:105A0000DB43BA691340BB613B685B6803F48033D6
:105A1000002B03D0BA693B691343BB610F4ABB69D2
:105A20001360FB690133FB61FB690F2B7FF6A2AEAC
:105A300000BF00BF2437BD465DF8047B704700BF40
:105A400000380240003801400000024000040240DB
:105A500000080240000C024000100240003C0140DF
:105A600080B485B000AF78600B467B807B681A6994
:105A70007B881340002B02D00123FB7301E000233D
:105A8000FB73FB7B18461437BD465DF8047B7047FB
:105A900080B483B000AF78600B467B8013467B7088
:105AA0007B78002B03D07A887B689A6103E07B883F
:105AB0001A047B689A6100BF0C37BD465DF8047B11
:105AC000704780B485B000AF78600B467B807B6800
:105AD0005B69FB607A88FB6813401A04FB68D94352
:105AE0007B880B401A437B689A6100BF1437BD4620
:105AF0005DF8047B704780B586B002AF78607B6844
:105B0000002B01D1012301E17B681B68BB607B682E
:105B100093F89534DBB2002B06D17B68002283F822
:105B20009424786806F07EF97B68032283F8952434
:105B3000BB68B3F1A04F02D17B6800229A717B68E9
:105B40001B68184602F041FD7B6818687B681A7C68
:105B50008DF8002004330ECB02F020FC0346002B0E
:105B600005D07B68022283F895240123CEE07B6870
:105B70001B680021184602F039FD0346002B05D0B2
:105B80007B68022283F895240123BFE00023FB7386
:105B90004AE0FA7B79681346DB0013449B000B4410
:105BA000153301221A70FA7B79681346DB0013441F
:105BB0009B000B441433FA7B1A70FA7BFB7B98B280
:105BC00079681346DB0013449B000B442E330246D6
:105BD0001A80FA7B79681346DB0013449B000B4460
:105BE000183300221A70FA7B79681346DB001344DD
:105BF0009B000B441C3300221A60FA7B7968134621
:105C0000DB0013449B000B44203300221A60FA7B14
:105C100079681346DB0013449B000B4424330022B5
:105C20001A60FB7B0133FB737B681B79FA7B9A421A
:105C3000AFD30023FB7344E0FA7B79681346DB00A3
:105C400013449B000B4403F2552300221A70FA7B85
:105C500079681346DB0013449B000B4403F515736E
:105C6000FA7B1A70FA7B79681346DB0013449B00B9
:105C70000B4403F5167300221A70FA7B79681346F9
:105C8000DB0013449B000B4403F5177300221A60DA
:105C9000FA7B79681346DB0013449B000B4403F541
:105CA000187300221A60FA7B79681346DB001344EC
:105CB0009B000B4403F5197300221A60FB7B013330
:105CC000FB737B681B79FA7B9A42B5D37B681868B3
:105CD0007B681A7C8DF8002004330ECB02F0D2FCD6
:105CE0000346002B05D07B68022283F8952401230C
:105CF0000CE07B6800225A747B68012283F89524AB
:105D00007B681B68184603F01CFD002318461037FB
:105D1000BD4680BD80B584B000AF78607B681B68ED
:105D2000FB607B6893F89434012B01D1022322E0BD
:105D30007B68012283F89424FB68DB6803F040034E
:105D4000002B09D07B685B7B012B05D1FB689B6B2B
:105D500043F48032FB689A637B681B68184602F044
:105D600023FC7B681B68184603F0CAFC7B68002292
:105D700083F89424002318461037BD4680BD90B5A3
:105D80008DB000AF78607B681B683B623B6AFB614B
:105D90007B681B68184603F088FD0346002B40F023
:105DA0008C847B681B68184603F0ECFC0346002BD0
:105DB00000F08284FB6903F500639B681B0AC3F350
:105DC0000D027B68C3F8D4247B681B68184603F077
:105DD000D9FC034603F00203022B07D17B681B6842
:105DE0005A697B681B6802F002025A617B681B6873
:105DF000184603F0C7FC034603F01003102B61D1D3
:105E00007B681B689A697B681B6822F010029A61A4
:105E10003B6A1B6ABB61BB6903F00F021346DB00E0
:105E200013449B0003F514737A68134404337B61B5
:105E3000BB6903F4F013B3F5802F24D1BA6947F698
:105E4000F0731340002B35D07B69D968BB691B09FF
:105E50009BB2C3F30A039BB21A46386A03F0FEFAF8
:105E60007B69DA68BB691B09C3F30A031A447B69BF
:105E7000DA607B695A69BB691B09C3F30A031A44D8
:105E80007B695A6116E0BB6903F4F013B3F5402F48
:105E900010D17B6803F29C4308221946386A03F04C
:105EA000DDFA7B695A69BB691B09C3F30A031A440B
:105EB0007B695A617B681B689A697B681B6842F042
:105EC00010029A617B681B68184603F05BFC03466E
:105ED00003F40023B3F5002F40F0A78000237B627A
:105EE0007B681B68184603F060FCB86299E0BB6AE7
:105EF00003F00103002B00F08E807B681B687A6A38
:105F0000D2B21146184603F084FC38613B6903F0B5
:105F10000103002B0CD07B6A5A01FB69134403F583
:105F200030631A4601239360796A786800F0A4FE12
:105F30003B6903F00803002B0CD07B6A5A01FB6914
:105F4000134403F530631A4608239360796A78682E
:105F500000F07AFF3B6903F01003002B08D07B6A46
:105F60005A01FB69134403F530631A46102393600A
:105F70003B6903F00203002B30D03B6A5B6903F0FE
:105F80008003802B09D1FB6903F500635B68FA6924
:105F900002F5006243F4806353607A6A1346DB00C3
:105FA00013449B0003F514737A68134404337B6134
:105FB0007B69DB78012B08D17B690022DA707B6A70
:105FC000DBB21946786806F029F87B6A5A01FB694A
:105FD000134403F530631A46022393603B6903F0D0
:105FE0002003002B08D07B6A5A01FB69134403F598
:105FF00030631A46202393603B6903F40053002B5F
:1060000009D07B6A5A01FB69134403F530631A46D1
:106010004FF4005393607B6A01337B62BB6A5B0879
:10602000BB62BB6A002B7FF462AF7B681B681846BB
:1060300003F0A8FB034603F48023B3F5802F40F060
:10604000DB807B681B68184603F0C9FBB86200233D
:106050007B62CDE0BB6A03F00103002B00F0C2803D
:106060007B681B687A6AD2B21146184603F0EFFBD0
:1060700038613B6903F00103002B57D07B6A03F0C2
:106080000F03012202FA03F3FB60FB6903F50063CF
:106090005A6BFB68DB43F96901F5006113404B6300
:1060A0007B6A5A01FB69134403F510631A46012306
:1060B00093607B689B79012B32D179687A6A1346A9
:1060C000DB0013449B000B442033196878687A6A1C
:1060D0001346DB0013449B0003441C331B68194424
:1060E00078687A6A1346DB0013449B00034420332C
:1060F00019607B6A002B13D179687A6A1346DB003A
:1061000013449B000B4424331B68002B08D17B688D
:1061100018687B6803F29C431A46012103F0F6FBE2
:106120007B6ADBB21946786805F0FDFE3B6903F037
:106130000803002B08D07B6A5A01FB69134403F55E
:1061400010631A46082393603B6903F01003002B89
:1061500008D07B6A5A01FB69134403F510631A46A1
:10616000102393603B6903F04003002B08D07B6A47
:106170005A01FB69134403F510631A4640239360E8
:106180003B6903F00203002B23D0796A386A02F0DE
:10619000DDFB7A6A1346DB0013449B0010337A68F8
:1061A000134404337B617B69DB78012B08D17B6965
:1061B0000022DA707B6ADBB21946786805F040FF8E
:1061C0007B6A5A01FB69134403F510631A460223E4
:1061D00093603B6903F08003002B03D0796A7868F1
:1061E00000F0BDFC7B6A01337B62BB6A5B08BB626B
:1061F000BB6A002B7FF42EAF7B681B68184603F048
:10620000C1FA034603F00043B3F1004F22D1FB690A
:1062100003F500635B68FA6902F5006223F001038D
:1062200053607B6893F8CC34012B08D17B68002243
:1062300083F8CC240021786800F0A4FE02E078689E
:1062400005F0DEFE7B681B685A697B681B6802F0FC
:1062500000425A617B681B68184603F093FA0346B4
:1062600003F40063B3F5006F12D1FB6903F500631B
:106270009B6803F00103012B02D1786805F09AFEB8
:106280007B681B685A697B681B6802F400625A616C
:106290007B681B68184603F075FA034603F48053C5
:1062A000B3F5805F40F0B780FB6903F500635B687E
:1062B000FA6902F5006223F0010353607B681B68F2
:1062C0001021184602F042FB0023FB6246E0FB6A05
:1062D0005A01FB69134403F510631A464FF67F33E6
:1062E0009360FB6A5A01FB69134403F510631B6852
:1062F000FA6A5101FA690A4402F5106223F40013A4
:106300001360FB6A5A01FB69134403F530631A46B4
:106310004FF67F339360FB6A5A01FB69134403F520
:1063200030631B68FA6A5101FA690A4402F5306267
:1063300023F400131360FB6A5A01FB69134403F54D
:1063400030631B68FA6A5101FA690A4402F5306247
:1063500043F000631360FB6A0133FB627B681B79C7
:106360001A46FB6A9342B2D3FB6903F50063DB690B
:10637000FA6902F5006243F00113D3617B68DB7BAD
:10638000002B16D0FB6903F50063D3F88430FA695B
:1063900002F5006243F00B03C2F88430FB6903F599
:1063A00000635B6CFA6902F5006243F00B0353640F
:1063B00015E0FB6903F500635B69FA6902F50062A9
:1063C00043F4005343F02B035361FB6903F500636F
:1063D0001B69FA6902F5006243F00B031361FB6964
:1063E00003F500631B68FA6902F5006223F4FE639B
:1063F00013607B6818687B6899797B6803F29C431B
:106400001A4603F083FA7B681B685A697B681B682D
:1064100002F480525A617B681B68184603F0B2F997
:10642000034603F40053B3F5005F23D17B681B6878
:10643000184603F048FA7B681B68184602F0FFFA1A
:1064400003461A467B68DA717B681C6801F0C8F95C
:1064500001467B68DB791A46204602F003F878682B
:1064600005F089FD7B681B685A697B681B6802F42C
:1064700000525A617B681B68184603F083F9034693
:1064800003F00803082B0AD1786805F066FD7B68E5
:106490001B685A697B681B6802F008025A617B68B6
:1064A0001B68184603F06EF9034603F08003802B47
:1064B00023D13B6A9B6923F080023B6A9A610123E6
:1064C0007B6214E079687A6A1346DB0013449B0010
:1064D0000B4403F257231B78012B05D17B6ADBB2F7
:1064E0001946786800F00AFB7B6A01337B627B689F
:1064F0001B791A467B6A9342E4D37B681B68184673
:1065000003F040F9034603F48013B3F5801F3CD138
:1065100001237B622BE07B6A5A01FB69134403F57C
:1065200010631B68BB6179687A6A1346DB00134409
:106530009B000B4418331B78012B15D1BB69002B32
:1065400012DA79687A6A1346DB0013449B000B4425
:10655000173301221A707B6ADBB263F07F03DBB270
:106560001946786800F0CAFA7B6A01337B627B685F
:106570001B791A467B6A9342CDD37B681B685A69A4
:106580007B681B6802F480125A617B681B6818469E
:1065900003F0F8F8034603F40013B3F5001F56D1D7
:1065A00001237B6245E07B6A5A01FB69134403F5D2
:1065B00030631B68BB6179687A6A1346DB00134459
:1065C0009B000B4403F516731B78012B2ED1BB697E
:1065D000002B2BDABB691A0C7B68D3F8D4345340F8
:1065E00003F00103002B21D179687A6A1346DB009E
:1065F00013449B000B4403F2572301221A703B6A99
:106600009B6943F080023B6A9A613B6A5B6903F0D5
:106610008003002B0AD1FB6903F500635B68FA690C
:1066200002F5006243F40073536008E07B6A0133B3
:106630007B627B681B791A467B6A9342B3D37B6883
:106640001B685A697B681B6802F400125A617B68F8
:106650001B68184603F096F8034603F08043B3F135
:10666000804F0AD1786805F0FDFC7B681B685A6989
:106670007B681B6802F080425A617B681B68184681
:1066800003F080F8034603F00403042B15D17B6864
:106690001B685B68BB61BB6903F00403002B02D07D
:1066A000786805F0EDFC7B681B6859687B681B689F
:1066B000BA690A435A6000E000BF3437BD4690BD56
:1066C00080B582B000AF78600B46FB707B6893F8B2
:1066D0009434012B01D1022312E07B68012283F85C
:1066E00094247B68FA785A747B681B68FA781146A0
:1066F000184602F0DFFF7B68002283F89424002311
:1067000018460837BD4680BD80B584B000AF7860BC
:10671000084611461A460346FB700B463B8013465B
:10672000BB700023FB7297F90330002B0FDAFB7864
:1067300003F00F021346DB0013449B0010337A680A
:1067400013440433FB60FB6801225A700FE0FB78AE
:1067500003F00F021346DB0013449B0003F5147390
:106760007A6813440433FB60FB6800225A70FB789C
:1067700003F00F03DAB2FB681A703B88C3F30A0216
:10678000FB689A60FB68BA781A71FB685B78002B2B
:1067900004D0FB681B781A46FB685A83BB78022B2F
:1067A00002D1FB6800225A717B6893F89434012B64
:1067B00001D102230EE07B68012283F894247B68D8
:1067C0001B68F968184602F05FF97B68002283F8BD
:1067D0009424FB7A18461037BD4680BD80B584B03E
:1067E00000AF78600B46FB7097F90330002B0FDA8F
:1067F000FB7803F00F021346DB0013449B001033B9
:106800007A6813440433FB60FB6801225A700FE07E
:10681000FB7803F00F021346DB0013449B0003F5E3
:1068200014737A6813440433FB60FB6800225A70C7
:10683000FB7803F00F03DAB2FB681A707B6893F8F9
:106840009434012B01D102230EE07B68012283F8EE
:1068500094247B681B68F968184602F09DF97B68F0
:10686000002283F89424002318461037BD4680BDCB
:1068700080B586B000AFF8607A603B600B46FB7273
:10688000FB7A03F00F021346DB0013449B0003F571
:106890001473FA68134404337B617B697A68DA60A5
:1068A0007B693A681A617B6900225A617B69002220
:1068B0005A70FB7A03F00F03DAB27B691A70FB6837
:1068C0009B79012B02D17A687B69DA61FB681868D1
:1068D000FB689B791A46796902F03AFA0023184658
:1068E0001837BD4680BD80B483B000AF78600B46DA
:1068F000FB70FB7803F00F0279681346DB0013444A
:106900009B000B4403F51A731B6818460C37BD46F1
:106910005DF8047B704780B586B000AFF8607A60A0
:106920003B600B46FB72FB7A03F00F021346DB0061
:1069300013449B001033FA68134404337B617B6972
:106940007A68DA607B693A681A617B6900225A6169
:106950007B6901225A70FB7A03F00F03DAB27B697C
:106960001A70FB689B79012B02D17A687B69DA6126
:10697000FB681868FB689B791A46796902F0E8F9A8
:10698000002318461837BD4680BD80B584B000AFDF
:1069900078600B46FB70FB7803F00F037A6812797E
:1069A000934201D901234FE097F90330002B0FDA0E
:1069B000FB7803F00F021346DB0013449B001033F7
:1069C0007A6813440433FB60FB6801225A700DE0BF
:1069D000FA781346DB0013449B0003F514737A68BE
:1069E00013440433FB60FB6800225A70FB680122E9
:1069F0009A70FB7803F00F03DAB2FB681A707B68B9
:106A000093F89434012B01D102231DE07B6801220D
:106A100083F894247B681B68F968184602F076FDB9
:106A2000FB7803F00F03002B09D17B6818687B68A3
:106A300099797B6803F29C431A4602F067FF7B68F2
:106A4000002283F89424002318461037BD4680BDE9
:106A500080B584B000AF78600B46FB70FB7803F024
:106A60000F037A681279934201D9012342E097F922
:106A70000330002B0FDAFB7803F00F021346DB0024
:106A800013449B0010337A6813440433FB60FB68A3
:106A900001225A700FE0FB7803F00F021346DB006F
:106AA00013449B0003F514737A6813440433FB60AA
:106AB000FB6800225A70FB6800229A70FB7803F092
:106AC0000F03DAB2FB681A707B6893F89434012BD9
:106AD00001D102230EE07B68012283F894247B68B5
:106AE0001B68F968184602F07FFD7B68002283F876
:106AF0009424002318461037BD4680BD80B584B06D
:106B000000AF78600B46FB7097F90330002B0CDA6E
:106B1000FB7803F00F021346DB0013449B00103395
:106B20007A6813440433FB600CE0FB7803F00F0237
:106B30001346DB0013449B0003F514737A68134477
:106B40000433FB607B681B68F968184602F09EFB03
:106B50000346FB72FB7A18461037BD4680BD80B5F0
:106B60008AB002AF786039607B681B687B617B69A3
:106B70003B613A681346DB0013449B0010337A688C
:106B800013440433FB60FB685A69FB681B699A4233
:106B900001D901236BE0FB681A69FB685B69D31AB2
:106BA000FB61FB689B68FA699A4202D9FB689B68A3
:106BB000FB61FB6903339B08BB612AE0FB681A6930
:106BC000FB685B69D31AFB61FB689B68FA699A42B0
:106BD00002D9FB689B68FB61FB6903339B08BB61BF
:106BE000FB68D9683B68DAB2FB6998B27B689B792D
:106BF00000930346786902F0F3FBFB68DA68FB69EF
:106C00001A44FB68DA60FB685A69FB691A44FB683E
:106C10005A613B685A013B69134403F510639B6951
:106C20009BB2BA699A4209D8FB685A69FB681B692A
:106C30009A4203D2FB681B69002BBFD1FB681A691B
:106C4000FB685B699A4211D83B6803F00F0301228D
:106C500002FA03F3BB603B6903F500635A6BBB6840
:106C6000DB43396901F5006113404B63002318468B
:106C70002037BD4680BD000080B588B000AF786089
:106C800039607B681B68FB61FB69BB61FB693C3356
:106C900004331B687B613B685A01BB69134403F5ED
:106CA00030639B683B617B689B79012B7BD13B699F
:106CB00003F00803002B15D07B69614A934240F230
:106CC000B9803B6903F40043002B00F0B3803B68BC
:106CD0005A01BB69134403F530631A464FF400436D
:106CE0009360A7E03B6903F02003002B09D03B68C9
:106CF0005A01BB69134403F530631A46202393609D
:106D000098E03B6903F02803002B40F093807B69F7
:106D10004B4A93420FD93B6903F40043002B0AD03E
:106D20003B685A01BB69134403F530631A464FF4BC
:106D3000004393607EE03A681346DB0013449B00F7
:106D400003F514737A6813440433FB60FB681A6A12
:106D50003B685901BB690B4403F530631B69C3F3FE
:106D60001203D21AFB685A613B68002B14D1FB68EE
:106D70001B69002B09D17B6818687B6803F29C4370
:106D80001A46012102F0C2FD06E0FB68DA68FB68E2
:106D90005B691A44FB68DA603B68DBB219467868C5
:106DA00005F0A6F846E07B69264A934224D13B6968
:106DB00003F40043002B0AD03B685A01BB6913441B
:106DC00003F530631A464FF40043936032E03B69A9
:106DD00003F02003002B08D03B685A01BB69134421
:106DE00003F530631A46202393603B68DBB21946F3
:106DF000786805F07DF81DE03B68002B14D17968B8
:106E00003A681346DB0013449B000B4403F51973E7
:106E10001B68002B08D17B6818687B6803F29C43D1
:106E20001A46002102F072FD3B68DBB21946786811
:106E300005F05EF8002318462037BD4680BD00BF30
:106E40000A30544F0A31544F80B586B000AF786095
:106E500039607B681B687B617B693B617B693C3384
:106E600004331B68FB603B685A013B69134403F51C
:106E700030639B68BB60FB68154A93420ED9BB68C0
:106E800003F40043002B09D03B685A013B691344CB
:106E900003F530631A464FF400439360786805F0B9
:106EA00015F8FB680A4A93420CD97B689B79012B41
:106EB00008D17B6818687B6803F29C431A4601215D
:106EC00002F024FD002318461837BD4680BD00BFE0
:106ED0000A30544F80B485B000AF78600B46FB7029
:106EE00013463B807B681B685B6ABB60FB78002BAA
:106EF00007D13B8819047B681B68BA680A439A6209
:106F000028E07B681B689B6A1B0CBA681344BB6053
:106F10000023FB730DE07B681A68FB7B40339B000A
:106F200013445B681B0CBA681344BB60FB7B0133E2
:106F3000FB73FA7BFB78013B9A42ECD33B88180445
:106F40007B681968FB78013BBA68024340339B00B9
:106F50000B445A60002318461437BD465DF8047B85
:106F6000704780B483B000AF78600B467B807B684D
:106F70001B687A885A62002318460C37BD465DF8B4
:106F8000047B704780B483B000AF78600B46FB7021
:106F900000BF0C37BD465DF8047B704780B586B0F6
:106FA00000AF78607B68002B01D1012367E27B682A
:106FB0001B6803F00103002B75D0884B9B6803F01E
:106FC0000C03042B0CD0854B9B6803F00C03082B9F
:106FD00012D1824B5B6803F48003B3F5800F0BD1B1
:106FE0007E4B1B6803F40033002B5BD07B685B682F
:106FF000002B57D1012342E27B685B68B3F5803FE9
:1070000006D1764B1B68754A43F4803313601DE04C
:107010007B685B68B3F5A02F0CD1704B1B686F4A7F
:1070200043F4802313606D4B1B686C4A43F4803338
:1070300013600BE0694B1B68684A23F480331360CC
:10704000664B1B68654A23F4802313607B685B688A
:10705000002B13D0FEF73EFA386108E0FEF73AFA4B
:1070600002463B69D31A642B01D9032307E25B4B29
:107070001B6803F40033002BF0D014E0FEF72AFA6B
:10708000386108E0FEF726FA02463B69D31A642B02
:1070900001D90323F3E1514B1B6803F40033002BA8
:1070A000F0D100E000BF7B681B6803F00203002BF7
:1070B00063D04A4B9B6803F00C03002B0BD0474B6B
:1070C0009B6803F00C03082B1CD1444B5B6803F452
:1070D0008003002B16D1414B1B6803F00203002BE9
:1070E00005D07B68DB68012B01D00123C7E13B4B56
:1070F0001B6823F0F8027B681B69DB0037491343E8
:107100000B603AE07B68DB68002B20D0344B012217
:107110001A60FEF7DFF9386108E0FEF7DBF9024696
:107120003B69D31A022B01D90323A8E12B4B1B681F
:1071300003F00203002BF0D0284B1B6823F0F80269
:107140007B681B69DB00254913430B6015E0244B6A
:1071500000221A60FEF7BEF9386108E0FEF7BAF9BE
:1071600002463B69D31A022B01D9032387E11B4B4B
:107170001B6803F00203002BF0D17B681B6803F04F
:107180000803002B36D07B685B69002B16D0154BAB
:1071900001221A60FEF79EF9386108E0FEF79AF9BD
:1071A00002463B69D31A022B01D9032367E10B4B3B
:1071B0005B6F03F00203002BF0D01BE0094B0022B1
:1071C0001A60FEF787F938610EE0FEF783F9024690
:1071D0003B69D31A022B07D9032350E10038024040
:1071E00000004742800E4742884B5B6F03F002036A
:1071F000002BEAD17B681B6803F00403002B00F02E
:1072000097800023FB75814B1B6C03F08053002B90
:107210000FD10023BB607D4B1B6C7C4A43F0805335
:1072200013647A4B1B6C03F08053BB60BB68012373
:10723000FB75774B1B6803F48073002B18D1744BDC
:107240001B68734A43F480731360FEF743F9386197
:1072500008E0FEF73FF902463B69D31A022B01D939
:1072600003230CE16A4B1B6803F48073002BF0D0FE
:107270007B689B68012B06D1644B1B6F634A43F00C
:10728000010313671CE07B689B68052B0CD15F4BE7
:107290001B6F5E4A43F0040313675C4B1B6F5B4A32
:1072A00043F0010313670BE0584B1B6F574A23F061
:1072B00001031367554B1B6F544A23F004031367F4
:1072C0007B689B68002B15D0FEF704F938610AE053
:1072D000FEF700F902463B69D31A41F28832934225
:1072E00001D90323CBE0494B1B6F03F00203002BB2
:1072F000EED014E0FEF7EEF838610AE0FEF7EAF8A7
:1073000002463B69D31A41F28832934201D90323E2
:10731000B5E03E4B1B6F03F00203002BEED1FB7D6B
:10732000012B05D1394B1B6C384A23F08053136471
:107330007B689B69002B00F0A180344B9B6803F0B5
:107340000C03082B5CD07B689B69022B41D1314B2D
:1073500000221A60FEF7BEF8386108E0FEF7BAF8BE
:1073600002463B69D31A022B01D9032387E0274B3E
:107370001B6803F00073002BF0D17B68DA697B682F
:107380001B6A1A437B685B6A9B011A437B689B6A92
:107390005B08013B1B041A437B68DB6A1B061B4925
:1073A00013434B601B4B01221A60FEF793F83861C0
:1073B00008E0FEF78FF802463B69D31A022B01D989
:1073C00003235CE0114B1B6803F00073002BF0D02B
:1073D00054E0104B00221A60FEF77CF8386108E098
:1073E000FEF778F802463B69D31A022B01D9032332
:1073F00045E0064B1B6803F00073002BF0D13DE025
:107400007B689B69012B07D1012338E000380240DB
:1074100000700040600047421B4B5B68FB607B686C
:107420009B69012B28D0FB6803F480027B68DB6931
:107430009A4221D1FB6803F03F027B681B6A9A42A3
:107440001AD1FA6847F6C07313407A68526A9201FB
:10745000934211D1FB6803F440327B689B6A5B085E
:10746000013B1B049A4207D1FB6803F070627B6802
:10747000DB6A1B069A4201D0012300E00023184674
:107480001837BD4680BD00BF0038024080B584B0CB
:1074900000AF786039607B68002B01D10123CCE01C
:1074A000684B1B6803F007033A689A420CD9654B96
:1074B0003A68D2B21A70634B1B6803F007033A684C
:1074C0009A4201D00123B8E07B681B6803F00203F5
:1074D000002B20D07B681B6803F00403002B05D031
:1074E000594B9B68584A43F4E05393607B681B6890
:1074F00003F00803002B05D0534B9B68524A43F41A
:1075000060439360504B9B6823F0F0027B689B685C
:107510004D4913438B607B681B6803F00103002B0C
:1075200044D07B685B68012B07D1474B1B6803F491
:107530000033002B19D101237FE07B685B68022BAD
:1075400003D07B685B68032B07D13F4B1B6803F0BC
:107550000073002B09D101236FE03B4B1B6803F044
:107560000203002B01D1012367E0374B9B6823F016
:1075700003027B685B68344913438B60FDF7AAFF05
:10758000F8600AE0FDF7A6FF0246FB68D31A41F255
:107590008832934201D903234FE02B4B9B6803F0C1
:1075A0000C027B685B689B009A42EBD1254B1B6801
:1075B00003F007033A689A420CD2224B3A68D2B2DF
:1075C0001A70204B1B6803F007033A689A4201D0F7
:1075D000012332E07B681B6803F00403002B08D012
:1075E000194B9B6823F4E0527B68DB681649134310
:1075F0008B607B681B6803F00803002B09D0124BDB
:107600009B6823F460427B681B69DB000E491343CF
:107610008B6000F021F802460B4B9B681B0903F0BE
:107620000F030A49CB5C22FA03F3094A1360094BA2
:107630001B681846FDF70AFF002318461037BD46A1
:1076400080BD00BF003C02400038024014CF00085B
:1076500000000020040000202DE9B04F90B000AFE2
:1076600000237B630023FB6300233B630023BB6396
:10767000584B9B6803F00C03082B0DD0082B00F22D
:10768000A080002B02D0042B03D09AE0524BBB63A6
:107690009AE0524BBB6397E04E4B5B6803F03F03AD
:1076A0007B634C4B5B6803F48003002B27D0494B72
:1076B0005B689B0900223B627A623B6AC3F3080065
:1076C0000021464B03FB01F2002300FB03F31344AC
:1076D000424AA0FB0221F962BA62FA6A1344FB62D1
:1076E0007B6B0022BB61FA61D7E90623D7E90A0167
:1076F000FCF7C6FD02460B461346FB6353E0354BD1
:107700005B689B0900223B617A613B69C3F3080A0D
:107710004FF0000B52465B464FF000004FF0000167
:10772000590141EAD261500102460B46B2EB0A0808
:1077300063EB0B094FF000024FF000034FEA89138F
:1077400043EA98634FEA8812B2EB080463EB090539
:107750004FF000024FF00003EB0043EA5473E200E5
:1077600014461D4614EB0A033B6045EB0B037B609C
:107770004FF000024FF00003D7E9004529468B0285
:10778000214643EA915321468A02104619467B6BF3
:107790000022BB60FA60D7E90223FCF771FD0246C4
:1077A0000B461346FB630B4B5B681B0C03F0030398
:1077B00001335B003B63FA6B3B6BB2FBF3F3BB63E0
:1077C00002E0054BBB6300BFBB6B18464037BD46AC
:1077D000BDE8B08F003802400024F40040787D01FD
:1077E00080B400AF034B1B681846BD465DF8047BB0
:1077F000704700BF0000002080B582B000AF786005
:107800007B68002B01D101237BE07B685B6A002B46
:1078100008D17B685B68B3F5827F09D07B68002262
:10782000DA6105E07B6800221A617B6800225A61F8
:107830007B6800229A627B6893F85130DBB2002BA0
:1078400006D17B68002283F850207868FDF78CFC15
:107850007B68022283F851207B681B681A687B686A
:107860001B6822F040021A607B685B6803F4827236
:107870007B689B6803F404431A437B68DB6803F46A
:1078800000631A437B681B6903F002031A437B6899
:107890005B6903F001031A437B689B6903F400737F
:1078A0001A437B68DB6903F038031A437B681B6A61
:1078B00003F0800342EA03017B689B6A03F40052F1
:1078C0007B681B680A431A607B689B691B0C03F08A
:1078D00004017B685B6A03F010027B681B680A4343
:1078E0005A607B681B68DA697B681B6822F4006257
:1078F000DA617B6800225A657B68012283F8512097
:10790000002318460837BD4680BD80B588B000AF5B
:10791000F860B9603B601346FB80FDF7DBFDF86162
:10792000FB887B83FB6893F85130DBB2012B01D0DD
:1079300002232AE1BB68002B02D0FB88002B01D177
:10794000012322E1FB6893F85030012B01D102237F
:107950001BE1FB68012283F85020FB68032283F8B7
:107960005120FB6800225A65FB68BA681A63FB68FD
:10797000FA889A86FB68FA88DA86FB6800229A639E
:10798000FB6800229A87FB680022DA87FB680022E6
:107990005A64FB6800221A64FB689B68B3F5004FC9
:1079A0000FD1FB681B681A68FB681B6822F0400255
:1079B0001A60FB681B681A68FB681B6842F4804207
:1079C0001A60FB681B681B6803F04003402B07D05C
:1079D000FB681B681A68FB681B6842F040021A606B
:1079E000FB68DB68B3F5006F52D1FB685B68002B66
:1079F00002D07B8B012B45D1FB681B6B1A88FB687F
:107A00001B68DA60FB681B6B9A1CFB681A63FB68D7
:107A1000DB8E9BB2013B9AB2FB68DA8632E0FB68F0
:107A20001B689B6803F00203022B12D1FB681B6BDF
:107A30001A88FB681B68DA60FB681B6B9A1CFB6882
:107A40001A63FB68DB8E9BB2013B9AB2FB68DA8655
:107A500018E0FDF73FFD0246FB69D31A3A689A42E7
:107A600003D83B68B3F1FF3F02D13B68002B09D13B
:107A7000FB68012283F85120FB68002283F8502024
:107A8000032382E0FB68DB8E9BB2002BC7D153E05F
:107A9000FB685B68002B02D07B8B012B47D1FB6816
:107AA0001A6BFB681B680C3312781A70FB681B6B2F
:107AB0005A1CFB681A63FB68DB8E9BB2013B9AB2CF
:107AC000FB68DA8633E0FB681B689B6803F00203FF
:107AD000022B13D1FB681A6BFB681B680C331278FE
:107AE0001A70FB681B6B5A1CFB681A63FB68DB8E01
:107AF0009BB2013B9AB2FB68DA8618E0FDF7EAFC1C
:107B00000246FB69D31A3A689A4203D83B68B3F13C
:107B1000FF3F02D13B68002B09D1FB68012283F8AB
:107B20005120FB68002283F8502003232DE0FB68DE
:107B3000DB8E9BB2002BC6D1FA693968F86800F079
:107B4000D9FB0346002B02D0FB6820225A65FB6854
:107B50009B68002B0AD100237B61FB681B68DB68F4
:107B60007B61FB681B689B687B617B69FB6801220A
:107B700083F85120FB68002283F85020FB685B6D7E
:107B8000002B01D0012300E0002318462037BD461A
:107B900080BD80B588B002AFF860B9603B60134625
:107BA000FB80FB6893F85130DBB2012B01D002233C
:107BB00004E1BB68002B02D0FB88002B01D101231C
:107BC000FCE0FB685B68B3F5827F12D1FB689B68C1
:107BD000002B0ED1FB68042283F85120FA883B6801
:107BE00000931346BA68B968F86800F0EBF80346EA
:107BF000E4E0FDF76FFC7861FB6893F85030012BEF
:107C000001D10223DAE0FB68012283F85020FB68EF
:107C1000042283F85120FB6800225A65FB68BA6889
:107C20009A63FB68FA889A87FB68FA88DA87FB68A8
:107C300000221A63FB6800229A86FB680022DA861B
:107C4000FB6800221A64FB6800225A64FB689B6888
:107C5000B3F5004F0FD1FB681B681A68FB681B68FF
:107C600022F040021A60FB681B681A68FB681B68F8
:107C700022F480421A60FB681B681B6803F0400313
:107C8000402B07D0FB681B681A68FB681B6842F032
:107C900040021A60FB68DB68002B70D135E0FB689E
:107CA0001B689B6803F00103012B15D1FB681B685F
:107CB00003F10C02FB689B6B1278D2B21A70FB685E
:107CC0009B6B5A1CFB689A63FB68DB8F9BB2013B82
:107CD0009AB2FB68DA8718E0FDF7FCFB02467B6985
:107CE000D31A3A689A4203D83B68B3F1FF3F02D1F6
:107CF0003B68002B09D1FB68012283F85120FB6807
:107D0000002283F85020032358E0FB68DB8F9BB2EE
:107D1000002BC4D138E0FB681B689B6803F00103AB
:107D2000012B13D1FB681B68DA68FB689B6B92B26E
:107D30001A80FB689B6B9A1CFB689A63FB68DB8F5D
:107D40009BB2013B9AB2FB68DA8718E0FDF7C2FBF1
:107D500002467B69D31A3A689A4203D83B68B3F16A
:107D6000FF3F02D13B68002B09D1FB68012283F859
:107D70005120FB68002283F8502003231EE0FB689B
:107D8000DB8F9BB2002BC6D17A693968F86800F0A6
:107D90004BFA0346002B02D0FB6820225A65FB6891
:107DA000012283F85120FB68002283F85020FB68F1
:107DB0005B6D002B01D0012300E00023184618372B
:107DC000BD4680BD80B58AB000AFF860B9607A600A
:107DD0007B8001237B62FDF77DFB3862FB6893F8B3
:107DE0005130FB77FB685B68BB617B88FB82FB7F64
:107DF000012B0CD0BB69B3F5827F06D1FB689B6871
:107E0000002B02D1FB7F042B01D002237FE1BB6852
:107E1000002B05D07B68002B02D07B88002B01D182
:107E2000012374E1FB6893F85030012B01D1022348
:107E30006DE1FB68012283F85020FB6893F8513014
:107E4000DBB2042B03D0FB68052283F85120FB68CA
:107E500000225A65FB687A689A63FB687A88DA8739
:107E6000FB687A889A87FB68BA681A63FB687A8825
:107E7000DA86FB687A889A86FB6800221A64FB68B7
:107E800000225A64FB681B681B6803F04003402B08
:107E900007D0FB681B681A68FB681B6842F0400249
:107EA0001A60FB68DB68B3F5006F7ED1FB685B6826
:107EB000002B02D0FB8A012B6CD1FB681B6B1A884C
:107EC000FB681B68DA60FB681B6B9A1CFB681A6313
:107ED000FB68DB8E9BB2013B9AB2FB68DA8659E005
:107EE000FB681B689B6803F00203022B1BD1FB6835
:107EF000DB8E9BB2002B16D07B6A012B13D1FB6863
:107F00001B6B1A88FB681B68DA60FB681B6B9A1C8A
:107F1000FB681A63FB68DB8E9BB2013B9AB2FB687D
:107F2000DA8600237B62FB681B689B6803F0010311
:107F3000012B19D1FB68DB8F9BB2002B14D0FB689F
:107F40001B68DA68FB689B6B92B21A80FB689B6BBC
:107F50009A1CFB689A63FB68DB8F9BB2013B9AB269
:107F6000FB68DA8701237B62FDF7B4FA02463B6ABD
:107F7000D31A3A6B9A420DD83B6BB3F1FF3F09D04D
:107F8000FB68012283F85120FB68002283F850200F
:107F90000323BCE0FB68DB8E9BB2002BA0D1FB6807
:107FA000DB8F9BB2002B9BD182E0FB685B68002BD0
:107FB00002D0FB8A012B71D1FB681A6BFB681B682E
:107FC0000C3312781A70FB681B6B5A1CFB681A631F
:107FD000FB68DB8E9BB2013B9AB2FB68DA865DE000
:107FE000FB681B689B6803F00203022B1CD1FB6833
:107FF000DB8E9BB2002B17D07B6A012B14D1FB6860
:108000001A6BFB681B680C3312781A70FB681B6BC9
:108010005A1CFB681A63FB68DB8E9BB2013B9AB269
:10802000FB68DA8600237B62FB681B689B6803F0B1
:108030000103012B19D1FB68DB8F9BB2002B14D0FD
:10804000FB681B68DA68FB689B6BD2B21A70FB682E
:108050009B6B5A1CFB689A63FB68DB8F9BB2013BEE
:108060009AB2FB68DA8701237B62FDF733FA024696
:108070003B6AD31A3A6B9A4203D83B6BB3F1FF3F8A
:1080800002D13B6B002B09D1FB68012283F8512000
:10809000FB68002283F85020032338E0FB68DB8E66
:1080A0009BB2002B9CD1FB68DB8F9BB2002B97D13E
:1080B0003A6A396BF86800F01DF90346002B08D0C6
:1080C000FB6820225A65FB68002283F850200123B8
:1080D0001DE0FB689B68002B0AD100233B61FB6815
:1080E0001B68DB683B61FB681B689B683B613B6905
:1080F000FB68012283F85120FB68002283F850209E
:10810000FB685B6D002B01D0012300E000231846C3
:108110002837BD4680BD000080B588B000AFF8604C
:10812000B9603B601346FB71FDF7D4F90246BB6AA8
:108130009B1A3A681344FB61FDF7CCF9B861394BDF
:108140001B685B011B0DFA6902FB03F37B6155E0C1
:108150003B68B3F1FF3F51D0FDF7BCF90246BB6964
:10816000D31AFA699A4202D9FB69002B3DD1FB6808
:108170001B685A68FB681B6822F0E0025A60FB68C3
:108180005B68B3F5827F11D1FB689B68B3F5004F44
:1081900004D0FB689B68B3F5806F07D1FB681B6850
:1081A0001A68FB681B6822F040021A60FB689B6A31
:1081B000B3F5005F0FD1FB681B681A68FB681B688A
:1081C00022F400521A60FB681B681A68FB681B687F
:1081D00042F400521A60FB68012283F85120FB68C8
:1081E000002283F85020032318E07B69002B02D182
:1081F0000023FB6102E07B69013B7B61FB681B683C
:108200009A68BB681340BA689A420CBF01230023E6
:10821000DBB21A46FB799A429AD1002318462037DE
:10822000BD4680BD0000002080B586B002AFF8607A
:10823000B9607A60FB685B68B3F5827F11D1FB6837
:108240009B68B3F5004F04D0FB689B68B3F5806F63
:1082500007D1FB681B681A68FB681B6822F04002A4
:108260001A60FB685B68B3F5827F2AD1FB689B6864
:10827000B3F5806F12D07B680093BB680022802129
:10828000F868FFF749FF0346002B2DD0FB685B6DB4
:1082900043F02002FB685A65032326E07B680093C5
:1082A000BB6800220121F868FFF736FF0346002B68
:1082B0001AD0FB685B6D43F02002FB685A6503230C
:1082C00013E07B680093BB6800220121F868FFF788
:1082D00023FF0346002B07D0FB685B6D43F02002B1
:1082E000FB685A65032300E0002318461037BD469B
:1082F00080BD000080B588B002AFF860B9607A60D8
:108300007B680093BB6801220221F868FFF704FF35
:108310000346002B07D0FB685B6D43F02002FB682F
:108320005A65032332E01B4B1B681B4AA2FB032345
:108330005B0D4FF47A7202FB03F37B61FB685B68B1
:10834000B3F5827F12D17B680093BB680022802145
:10835000F868FFF7E1FE0346002B16D0FB685B6D63
:1083600043F02002FB685A6503230FE07B69002B72
:108370000AD07B69013B7B61FB681B689B6803F04B
:108380008003802BF2D000E000BF0023184618378E
:10839000BD4680BD00000020819F5E1684B080B580
:1083A00084B000AF786007F11C0080E80E0097F8F9
:1083B0002130012B23D17B689B6B23F480327B68B7
:1083C0009A637B68DB6823F4840323F040037A68B4
:1083D000D3607B68DB6823F440127B68DA6097F82F
:1083E0002830012B05D17B68DB6843F480127B6861
:1083F000DA60786801F0E8FA0346FB731BE07B68FB
:10840000DB6843F040027B68DA60786801F0DCFAF0
:108410000346FB7397F82530002B06D17B689B6BD6
:1084200043F480327B689A6305E07B689B6B23F49E
:1084300080327B689A63BB7F012B0BD17B689B6882
:1084400043F006027B689A607B689B6843F02002D9
:108450007B689A60FB7B18461037BD46BDE88040BC
:1084600004B0704780B487B000AFF860B9601346BD
:10847000FB71FB79022B65D1BB68414A934206D957
:10848000BB68404A934202D20F237B6162E0BB6823
:108490003C4A934206D3BB683B4A934202D20E2326
:1084A0007B6157E0BB68384A934206D3BB68374AC2
:1084B000934202D20D237B614CE0BB68334A934266
:1084C00006D3BB68324A934202D80C237B6141E059
:1084D000BB682F4A934206D9BB682E4A934202D802
:1084E0000B237B6136E0BB682A4A934206D9BB68FE
:1084F000294A934202D80A237B612BE0BB68264AB3
:10850000934206D9BB68254A934202D209237B6174
:1085100020E0BB68214A934206D3BB68204A9342BD
:1085200002D808237B6115E0BB681D4A934206D937
:10853000BB681C4A934202D207237B610AE00623F0
:108540007B6107E0FB79002B02D109237B6101E00D
:1085500009237B61FB68DB6823F47052FB68DA60F7
:10856000FB68DA687B699B0203F470531A43FB686B
:10857000DA60002318461C37BD465DF8047B70475F
:10858000BFACD800C0E1E4000024F4008073060111
:108590009F491A01FF2C31013FA44C0100366E01A6
:1085A0001FABA6010048E80180B483B000AF78603B
:1085B0007B689B6843F001027B689A600023184641
:1085C0000C37BD465DF8047B704780B483B000AFC4
:1085D00078607B689B6823F001027B689A600023C7
:1085E00018460C37BD465DF8047B704780B584B0F3
:1085F00000AF78600B46FB700023FB607B68DB6894
:1086000023F0C0427B68DA60FB78012B15D17B68D0
:10861000DB6843F000527B68DA600A20FCF766FFF3
:10862000FB680A33FB60786801F03FF90346012BD1
:108630001ED0FB68C72BF0D91AE0FB78002B15D1B0
:108640007B68DB6843F080427B68DA600A20FCF7D5
:108650004DFFFB680A33FB60786801F026F903469A
:10866000002B05D0FB68C72BF0D901E0012305E002
:10867000FB68C82B01D1012300E000231846103706
:10868000BD4680BD84B080B586B000AF786007F18C
:10869000240080E80E000023FB757B68FB6000234C
:1086A0003B6109E07A683B6940339B001344002238
:1086B0005A603B6901333B613B690E2BF2D997F855
:1086C0002E30002B1CD1FB6803F500635B68FA6851
:1086D00002F5006243F0020353607B689B6B43F436
:1086E00000127B689A637B689B6B23F400227B6893
:1086F0009A637B689B6B23F480227B689A630BE010
:108700007B689B6B23F400127B689A637B689B6B8E
:1087100043F400227B689A63FB6803F560631A46A2
:108720000023136097F82930012B0DD197F82730DB
:10873000002B04D10021786800F068F908E00121DD
:10874000786800F063F903E00321786800F05EF9CF
:108750001021786800F0FAF80346002B01D00123BD
:10876000FB75786800F024F90346002B01D0012343
:10877000FB75FB6803F500631A4600231361FB6871
:1087800003F500631A4600235361FB6803F5006399
:108790001A460023D36100233B6143E03B695A0141
:1087A000FB68134403F510631B6803F00043B3F147
:1087B000004F18D13B69002B0AD13B695A01FB6875
:1087C000134403F510631A464FF00063136013E07F
:1087D0003B695A01FB68134403F510631A464FF0D6
:1087E0009043136008E03B695A01FB68134403F5AA
:1087F00010631A46002313603B695A01FB68134457
:1088000003F510631A46002313613B695A01FB68A4
:10881000134403F510631A464FF67F3393603B69A8
:1088200001333B6197F824301A463B699342B5D334
:1088300000233B6143E03B695A01FB68134403F5A5
:1088400030631B6803F00043B3F1004F18D13B695C
:10885000002B0AD13B695A01FB68134403F53063CE
:108860001A464FF00063136013E03B695A01FB683E
:10887000134403F530631A464FF09043136008E049
:108880003B695A01FB68134403F530631A46002321
:1088900013603B695A01FB68134403F530631A46C1
:1088A000002313613B695A01FB68134403F53063ED
:1088B0001A464FF67F3393603B6901333B6197F86B
:1088C00024301A463B699342B5D3FB6803F5006335
:1088D0001B69FA6802F5006223F4807313617B68F8
:1088E00000229A617B686FF080425A6197F82630C7
:1088F000002B05D17B689B6943F010027B689A616D
:108900007B689A69104B13437A68936197F82A3011
:10891000002B05D07B689B6943F008027B689A6155
:1089200097F82E30012B07D17B689B6943F0804379
:1089300043F004037A689361FB7D18461837BD46FF
:10894000BDE8804004B0704700383C8080B485B0FA
:1089500000AF786039600023FB60FB680133FB6087
:10896000FB68B3F1706F01D903231BE07B681B69BF
:10897000002BF2DA0023FB603B689B0143F02002EE
:108980007B681A61FB680133FB60FB68B3F1706FB1
:1089900001D9032306E07B681B6903F02003202B29
:1089A000F0D0002318461437BD465DF8047B7047AD
:1089B00080B485B000AF78600023FB60FB680133B2
:1089C000FB60FB68B3F1706F01D9032318E07B688B
:1089D0001B69002BF2DA0023FB607B6810221A610E
:1089E000FB680133FB60FB68B3F1706F01D90323AF
:1089F00006E07B681B6903F01003102BF0D0002306
:108A000018461437BD465DF8047B704780B485B0C6
:108A100000AF78600B46FB707B68FB60FB6803F57A
:108A200000631A68FB78F96801F5006113430B6075
:108A3000002318461437BD465DF8047B704780B4A8
:108A400087B000AF78607B683B613B6903F50063EA
:108A50009B6803F00603FB60FB68002B02D1002338
:108A6000FB750AE0FB68022B02D0FB68062B02D1E3
:108A70000223FB7501E00F23FB75FB7D18461C37B5
:108A8000BD465DF8047B704780B485B000AF786068
:108A900039607B68FB603B681B78BB603B685B7838
:108AA000012B3AD1FB6803F50063DA693B681B7858
:108AB00003F00F03012101FA03F39BB2F96801F5FA
:108AC00000611343CB61BB685A01FB68134403F593
:108AD00010631B6803F40043002B55D1BB685A0197
:108AE000FB68134403F510631A683B689B68C3F383
:108AF0000A013B681B799B041943BB689B050B4328
:108B00001343BA685101FA680A4402F5106243F04F
:108B1000805343F40043136036E0FB6803F50063C1
:108B2000DA693B681B7803F00F03012101FA03F3B4
:108B30001B04F96801F500611343CB61BB685A015E
:108B4000FB68134403F530631B6803F40043002BF8
:108B50001AD1BB685A01FB68134403F530631A68E5
:108B60003B689B68C3F30A013B681B799B040B437A
:108B70001343BA685101FA680A4402F5306243F0BF
:108B8000805343F400431360002318461437BD4656
:108B90005DF8047B7047000080B485B000AF78605A
:108BA00039607B68FB603B681B78BB603B685B7827
:108BB000012B61D1BB685A01FB68134403F51063B4
:108BC0001B6803F00043B3F1004F1FD1BB685A018B
:108BD000FB68134403F510631B68BA685101FA6817
:108BE0000A4402F5106243F000631360BB685A0147
:108BF000FB68134403F510631B68BA685101FA68F7
:108C00000A4402F5106243F080431360FB6803F5E9
:108C10000063DA6B3B681B7803F00F03012101FA54
:108C200003F39BB2DB43F96801F500611340CB63AA
:108C3000FB6803F50063DA693B681B7803F00F03F8
:108C4000012101FA03F39BB2DB43F96801F50061EE
:108C50001340CB61BB685A01FB68134403F51063F2
:108C60001A68BB685901FB680B4403F51063194689
:108C7000354B13400B6060E0BB685A01FB6813443E
:108C800003F530631B6803F00043B3F1004F1FD1BD
:108C9000BB685A01FB68134403F530631B68BA686C
:108CA0005101FA680A4402F5306243F00063136030
:108CB000BB685A01FB68134403F530631B68BA684C
:108CC0005101FA680A4402F5306243F080431360B0
:108CD000FB6803F50063DA6B3B681B7803F00F0356
:108CE000012101FA03F31B04DB43F96801F500617C
:108CF0001340CB63FB6803F50063DA693B681B78BC
:108D000003F00F03012101FA03F31B04DB43F968AD
:108D100001F500611340CB61BB685A01FB68134445
:108D200003F530631A68BB685901FB680B4403F50F
:108D300030631946054B13400B6000231846143767
:108D4000BD465DF8047B7047007833EC0078F3EFA4
:108D500080B58AB002AFF860B9601346FB71FB685A
:108D6000FB61BB681B78BB61BB685B78012B40F083
:108D70007F81BB681B69002B32D1BB695A01FB693B
:108D8000134403F510631B69BA695101FA690A4477
:108D900002F5106223F0FF5323F4C0131361BB6983
:108DA0005A01FB69134403F510631B69BA69510149
:108DB000FA690A4402F5106243F400231361BB69A7
:108DC0005A01FB69134403F510631B69BA69510129
:108DD000FA690A4402F51062DB0CDB04136197E0C8
:108DE000BB695A01FB69134403F510631B69BA6937
:108DF0005101FA690A4402F51062DB0CDB041361CD
:108E0000BB695A01FB69134403F510631B69BA6916
:108E10005101FA690A4402F5106223F0FF5323F46A
:108E2000C0131361BB69002B1AD1BB681A69BB68F8
:108E30009B689A4203D9BB689A68BB681A61BB6990
:108E40005A01FB69134403F510631B69BA695101A8
:108E5000FA690A4402F5106243F40023136144E006
:108E6000BB681A69BB689B6813445A1EBB689B6841
:108E7000B2FBF3F3FB82BB695A01FB69134403F5B0
:108E800010631A69FB8AD904A44B0B40B9694801E5
:108E9000F969014401F5106113430B61BB681B794B
:108EA000012B22D1BB695A01FB69134403F51063FE
:108EB0001B69BA695101FA690A4402F5106223F08C
:108EC000C0431361BB695A01FB69134403F5106386
:108ED0001A69FB8A5B0703F0C043B9694801F96965
:108EE000014401F5106113430B61BB695A01FB6931
:108EF000134403F510631A69BB681B69C3F31203BB
:108F0000B9694801F969014401F5106113430B6126
:108F1000FB79012B4BD1BB68DB69002B09D0BB6906
:108F20005A01FB69134403F510631A46BB68DB69F9
:108F30005361BB681B79012B28D1FB6903F50063E2
:108F40009B6803F48073002B10D1BB695A01FB6945
:108F5000134403F510631B68BA695101FA690A44A6
:108F600002F5106243F0005313600FE0BB695A0131
:108F7000FB69134403F510631B68BA695101FA6970
:108F80000A4402F5106243F080531360BB695A0132
:108F9000FB69134403F510631B68BA695101FA6950
:108FA0000A4402F5106243F00443136066E1BB69B2
:108FB0005A01FB69134403F510631B68BA69510138
:108FC000FA690A4402F5106243F004431360BB6877
:108FD0001B79012B15D0BB681B69002B00F04E815B
:108FE000FB6903F500635A6BBB681B7803F00F0342
:108FF000012101FA03F3F96901F5006113434B63A1
:109000003CE1FB6903F500639B6803F48073002B6C
:1090100010D1BB695A01FB69134403F510631B6847
:10902000BA695101FA690A4402F5106243F000532B
:1090300013600FE0BB695A01FB69134403F5106329
:109040001B68BA695101FA690A4402F5106243F0DB
:1090500080531360BB68D968BB681A78BB681B690A
:1090600098B2FB7900930346F86800F0B9F905E17E
:10907000BB695A01FB69134403F530631B69BA6984
:109080005101FA690A4402F53062DB0CDB0413611A
:10909000BB695A01FB69134403F530631B69BA6964
:1090A0005101FA690A4402F5306223F0FF5323F4B8
:1090B000C0131361BB69002B32D1BB681B69002B45
:1090C00003D0BB689A68BB681A61BB689A68BB68C2
:1090D0001A62BB695A01FB69134403F530631A69CC
:1090E000BB681B6AC3F31203B9694801F9690144FB
:1090F00001F5306113430B61BB695A01FB691344ED
:1091000003F530631B69BA695101FA690A4402F533
:10911000306243F40023136162E000BF0000F81FD7
:10912000BB681B69002B23D1BB695A01FB6913443F
:1091300003F530631A69BB689B68C3F31203B9690E
:109140004801F969014401F5306113430B61BB69C2
:109150005A01FB69134403F530631B69BA69510175
:10916000FA690A4402F5306243F40023136137E0E0
:10917000BB681A69BB689B6813445A1EBB689B682E
:10918000B2FBF3F3FB82BB689B68FA8A03FB02F233
:10919000BB681A62BB695A01FB69134403F530636B
:1091A0001A69FB8AD904384B0B40B9694801F9693F
:1091B000014401F5306113430B61BB695A01FB693E
:1091C000134403F530631A69BB681B6AC3F31203C7
:1091D000B9694801F969014401F5306113430B6134
:1091E000FB79012B0DD1BB68DB68002B09D0BB6874
:1091F000D968BB695A01FB69134403F530630A4619
:109200005A61BB681B79012B28D1FB6903F5006308
:109210009B6803F48073002B10D1BB695A01FB6972
:10922000134403F530631B68BA695101FA690A44B3
:1092300002F5306243F0005313600FE0BB695A013E
:10924000FB69134403F530631B68BA695101FA697D
:109250000A4402F5306243F080531360BB695A013F
:10926000FB69134403F530631B68BA695101FA695D
:109270000A4402F5306243F00443136000231846A9
:109280002037BD4680BD00BF0000F81F80B487B006
:1092900000AF786039600023FB600023FB757B68BA
:1092A0003B613B685B78012B4AD13B681B785A01D4
:1092B0003B69134403F510631B6803F00043B3F1EB
:1092C000004F40F086803B681B785A013B6913448D
:1092D00003F510631B683A68127851013A690A4431
:1092E00002F5106243F0006313603B681B785A017B
:1092F0003B69134403F510631B683A681278510107
:109300003A690A4402F5106243F080431360FB6837
:109310000133FB60FB6842F21072934202D90123D1
:10932000FB7556E03B681B785A013B69134403F513
:1093300010631B6803F00043B3F1004FE7D048E02F
:109340003B681B785A013B69134403F530631B6883
:1093500003F00043B3F1004F3BD13B681B785A0147
:109360003B69134403F530631B683A681278510176
:109370003A690A4402F5306243F0006313603B68C7
:109380001B785A013B69134403F530631B683A6844
:10939000127851013A690A4402F5306243F0804381
:1093A0001360FB680133FB60FB6842F2107293426A
:1093B00002D90123FB750CE03B681B785A013B691D
:1093C000134403F530631B6803F00043B3F1004F0F
:1093D000E7D0FB7D18461C37BD465DF8047B70471F
:1093E00080B489B000AFF860B96011461A460B46E8
:1093F000FB711346BB80FB687B61BB68FB6197F820
:109400002830002B23D1BB8803339B083B6100230A
:10941000BB6118E0FB791A037B69134403F58053A1
:109420001A46FB691B681360FB690133FB61FB692A
:109430000133FB61FB690133FB61FB690133FB61B4
:10944000BB690133BB61BA693B699A42E2D300232D
:1094500018462437BD465DF8047B704780B48BB056
:1094600000AFF860B9601346FB80FB68BB61BB6866
:109470007B62FB889B089BB27B61FB8803F0030344
:10948000FB8300233B6214E0BB6903F580531A6839
:109490007B6A1A607B6A01337B627B6A01337B6281
:1094A0007B6A01337B627B6A01337B623B6A0133F7
:1094B0003B623A6A7B699A42E6D3FB8B002B1ED053
:1094C00000233B62BB6903F580531A4607F1100382
:1094D00012681A603A693B6ADBB2DB0022FA03F3D6
:1094E000DAB27B6A1A703B6A01333B627B6A0133F2
:1094F0007B62FB8B013BFB83FB8B002BEAD17B6AFE
:1095000018462C37BD465DF8047B704780B485B0A3
:1095100000AF786039607B68FB603B681B78BB609C
:109520003B685B78012B2CD1BB685A01FB68134464
:1095300003F510631B68002B12DBBB68002B0FD0F8
:10954000BB685A01FB68134403F510631B68BA68D3
:109550005101FA680A4402F5106223F08043136057
:10956000BB685A01FB68134403F510631B68BA68B3
:109570005101FA680A4402F5106243F400131360C3
:109580002BE0BB685A01FB68134403F530631B688A
:10959000002B12DBBB68002B0FD0BB685A01FB68A5
:1095A000134403F530631B68BA685101FA680A4432
:1095B00002F5306223F080431360BB685A01FB68F8
:1095C000134403F530631B68BA685101FA680A4412
:1095D00002F5306243F40013136000231846143779
:1095E000BD465DF8047B704780B485B000AF7860FD
:1095F00039607B68FB603B681B78BB603B685B78CD
:10960000012B28D1BB685A01FB68134403F5106392
:109610001B68BA685101FA680A4402F5106223F423
:10962000001313603B681B79032B03D03B681B7945
:10963000022B38D1BB685A01FB68134403F5106351
:109640001B68BA685101FA680A4402F5106243F0D7
:109650008053136027E0BB685A01FB68134403F58D
:1096600030631B68BA685101FA680A4402F5306237
:1096700023F4001313603B681B79032B03D03B6872
:109680001B79022B0FD1BB685A01FB68134403F509
:1096900030631B68BA685101FA680A4402F5306207
:1096A00043F080531360002318461437BD465DF81D
:1096B000047B704780B485B000AF78600B46FB70C8
:1096C0007B68FB60FB6803F500631B68FA6802F5C2
:1096D000006223F4FE631360FB6803F500631A68FD
:1096E000FB781B0103F4FE63F96801F50061134385
:1096F0000B60002318461437BD465DF8047B7047A5
:1097000080B485B000AF78607B68FB60FB6803F5D0
:1097100060631B68FA6802F5606223F0030313605C
:10972000FB6803F500635B68FA6802F5006223F0EA
:1097300002035360002318461437BD465DF8047BCE
:10974000704780B485B000AF78607B68FB60FB68D1
:1097500003F560631B68FA6802F5606223F0030397
:109760001360FB6803F500635B68FA6802F500624A
:1097700043F002035360002318461437BD465DF8DA
:10978000047B704780B485B000AF78607B685B690C
:10979000FB607B689B69FA681340FB60FB681846B6
:1097A0001437BD465DF8047B704780B485B000AFC8
:1097B00078607B68FB60FB6803F500639B69BB60B6
:1097C000FB6803F50063DB69BA681340BB60BB68E4
:1097D0001B0C18461437BD465DF8047B704780B4F7
:1097E00085B000AF78607B68FB60FB6803F50063C1
:1097F0009B69BB60FB6803F50063DB69BA681340D3
:10980000BB60BB689BB218461437BD465DF8047B4D
:10981000704780B485B000AF78600B46FB707B6802
:10982000FB60FB785A01FB68134403F530639B68C7
:10983000BB60FB6803F500635B69BA681340BB60FB
:10984000BB6818461437BD465DF8047B704780B48A
:1098500087B000AF78600B46FB707B687B617B69EB
:1098600003F500631B693B617B6903F500635B6B78
:10987000FB60FB7803F00F03FA6822FA03F3DB01C5
:10988000DBB23A6913433B61FB785A017B691344AD
:1098900003F510639B683A691340BB60BB681846C8
:1098A0001C37BD465DF8047B704780B483B000AFC1
:1098B00078607B685B6903F0010318460C37BD468E
:1098C0005DF8047B704780B485B000AF78607B683A
:1098D000FB60FB6803F510631B68FA6802F5106211
:1098E00023F4FF6323F007031360FB6803F50063B1
:1098F0005B68FA6802F5006243F4807353600023EA
:1099000018461437BD465DF8047B704780B487B0B5
:1099100000AFF8600B467A60FB72FB687B61FB6806
:109920003C3304331B683B613B69264A93420AD9A6
:109930007B6903F530631B6803F00043B3F1004F0C
:1099400001D1002337E07B6903F530631A46002319
:1099500013617B6903F530631B697A6902F5306234
:1099600043F4002313617B6903F530631B697A6953
:1099700002F5306243F0180313617B6903F530632D
:109980001B697A6902F5306243F0C0431361FB7AC8
:10999000012B0FD17B6903F530631A467B68536155
:1099A0007B6903F530631B687A6902F5306243F026
:1099B00080231360002318461C37BD465DF8047BE6
:1099C000704700BF0A30544F80B485B000AF786054
:1099D0000023FB60FB680133FB60FB68B3F1706F31
:1099E00001D9032322E07B681B69002BF2DA0A23EA
:1099F000FB6002E0FB68013BFB60FB68002BF9D1D8
:109A00007B681B6943F001027B681A61FB680133C4
:109A1000FB60FB68B3F1706F01D9032306E07B683C
:109A20001B6903F00103012BF0D000231846143703
:109A3000BD465DF8047B704780B584B000AF7860A8
:109A40000B46FB704FF4077002F0B2FCF860FB6845
:109A5000002B09D17B68D3F8D4227B68B032002177
:109A600043F822100223D4E04FF407720021F86873
:109A700002F018FD7B68D3F8D4227B68B032F96815
:109A800043F822107B68D3F8D4227B68B03253F8B5
:109A900022207B68C3F8BC227B681B7C002B38D15A
:109AA0005E4B19784FF400730222786802F05DFB78
:109AB0005A4B1B7803F00F02796813469B0013443E
:109AC0009B000B44233301221A70554B19784FF435
:109AD00000730222786802F048FB514B1B7803F0B8
